S00B000066616E2E73726563E4
S113000045C0000060C000005EC000005CC000008D
S11300105AC0000058C0000056C0000054C0000080
S113002052C0000079C200004EC000004CC0000065
S11300304AC0000048C0000046C0000044C00000A0
S113004042C0000040C000003EC000003CC00000B0
S11300503AC0000038C0000036C0000034C00000C0
S113006032C0000030C000002EC000002CC00000D0
S11300702AC0000028C0000026C0000024C00000E0
S113008022C0000020C000001EC0000011241FBEBA
S1130090CFEFD0E1DEBFCDBF11E0A0E0B1E0EAE9EF
S11300A0FDE000E00BBF02C007900D92AE34B10733
S11300B0D9F721E0AEE4B1E001C01D92AE35B2073C
S11300C0E1F7B8D168C69CCF85B3846085BB86E66A
S11300D09EE00197F1F7000085B38B7F85BB86E630
S11300E09EE00197F1F70000089595B3916095BBE8
S11300F08BBBEADF8CEC9CE10197F1F700C00000B8
S1130100089595B39E7F95BB8BBBDEDF8CEC9CE1A1
S11301100197F1F700C00000089581E0F2DF8CEC54
S11301209CE10197F1F700C0000008952FEF8FE3E1
S113013092E0215080409040E1F700C000008FEF32
S11301408ABB1BBA84B3876084BB85B38D7F85BBB0
S113015088E3D7DF8CE0D5DFE0DF86E0D2CF0895F7
S11301600F931F93CF938C01C0E002C0BEDFCF5F1B
S1130170F801EC0FF11D80818111F8CFCF911F910F
S11301800F9108956F70817090E4899F600D112420
S1130190862F8058B6CF0895CF93DF93CDB7DEB7BF
S11301A0A0970FB6F894DEBF0FBECDBF80915A0161
S11301B090915B019C01215031092F393F4008F097
S11301C030C120915C0130915D01121613060CF0D0
S11301D028C1203A3F400CF024C1883E23E0920716
S11301E094F09F938F9382E091E09F938F93CE013D
S11301F001969F938F93F4D20F900F900F900F90CE
S11302000F900F903EC09C0124563109243833408E
S113021090F49F938F9387E091E09F938F93CE0107
S113022001969F938F93DCD20F900F900F900F90B5
S11302300F900F9026C08A30910594F09F938F936E
S11302408DE091E09F938F93CE0101969F938F93BE
S1130250C7D20F900F900F900F900F900F9011C076
S11302609F938F9384E191E09F938F93CE010196A6
S11302709F938F93B5D20F900F900F900F900F9084
S11302800F9080915C0190915D01883E23E092077C
S113029094F09F938F938CE191E09F938F93CE0181
S11302A009969F938F939CD20F900F900F900F906D
S11302B00F900F903EC09C012456310924383340DE
S11302C090F49F938F9381E291E09F938F93CE015B
S11302D009969F938F9384D20F900F900F900F9055
S11302E00F900F9026C08A30910594F09F938F93BE
S11302F087E291E09F938F93CE0109969F938F930A
S11303006FD20F900F900F900F900F900F9011C01D
S11303109F938F938EE291E09F938F93CE010996E2
S11303209F938F935DD20F900F900F900F900F902B
S11303300F9080915801909159018436910594F061
S11303409F938F9386E391E09F938F93CE01419681
S11303509F938F9345D20F900F900F900F900F9013
S11303600F9017C09C012A5031092A35310588F4B1
S11303709F938F938BE391E09F938F93CE0141964C
S11303809F938F932DD20F900F900F900F900F90FB
S11303900F9080915601909157018436910594F005
S11303A09F938F9381E491E09F938F93CE0149961D
S11303B09F938F9315D20F900F900F900F900F90E3
S11303C00F9017C09C012A5031092A35310588F451
S11303D09F938F9386E491E09F938F93CE014996E8
S11303E09F938F93FDD10F900F900F900F900F90CC
S11303F00F9060E080E0C6DECE010196B1DE68E0D9
S113040080E0C0DECE010996ABDE60E081E0BADEBA
S1130410CE014196A5DE68E081E0B4DECE014996C6
S11304209FDEA0960FB6F894DEBF0FBECDBFDF915E
S1130430CF910895CF93DF93CDB7DEB76E970FB604
S1130440F894DEBF0FBECDBFFE0131968EE1DF0111
S11304501D928A95E9F7789469DE0CD0DDD0CE013F
S113046001962EE1FC0111922A95E9F73ED194DE22
S113047047D0F5CF80E987BB88BB8FE683BF8DE685
S113048085BD80E887BF8FEF83BD88E781BF08956E
S11304908091560190915701C39734F4809158018B
S11304A090915901449734F08AEF90E0909355016C
S11304B080935401089580915A0190915B019C01AD
S11304C0235331092233310550F020915C013091DE
S11304D05D01A901435351094233510520F4809130
S11304E0540181BF08950B97889728F02B50310948
S11304F02832310520F480915401825381BF08953C
S11305008091000183BD8FEF9FE80197F1F700C050
S11305100000BEDFD0CF08951F920F920FB60F9246
S113052011242F938F939F9380915A0190915B0193
S11305308531910554F480915201909153010196B3
S1130540909353018093520108C045978B3B974089
S113055020F4109253011092520180915C01909109
S11305605D018531910554F48091500190915101C0
S11305700196909351018093500108C045978B3B9D
S1130580974020F410925101109250018091520131
S113059090915301C397CCF01092510110925001E5
S11305A08091000190910101019790930101809342
S11305B000010A9734F489E090E09093010180935C
S11305C000011092530110925201809150019091B8
S11305D05101C397CCF010925301109252018091B3
S11305E00001909101010196909301018093000113
S11305F0819734F081E290E09093010180930001AF
S113060010925101109250019F918F912F910F9050
S11306100FBE0F901F90189588E180939A008FE584
S113062080939900089580919B008823E4F780913A
S11306309C0008950F931F93CF93DF93CDB7DEB73C
S1130640A8970FB6F894DEBF0FBECDBF6CE471E07F
S11306508ED0BC0120E030E01CC089010F5F1F4F29
S1130660C901880F991F220F331F220F331F220F36
S1130670331F820F931F21E030E02C0F3D1F820FA8
S1130680931F78D06CE471E080E090E070D0BC01FE
S113069098016115710509F7CE0101964BD090932D
S11306A05B0180935A01CE010B9644D090935D0177
S11306B080935C01CE0145963DD09093590180937F
S11306C05801CE014F9636D090935701809356012E
S11306D080E090E0A8960FB6F894DEBF0FBECDBFC1
S11306E0DF91CF911F910F910895EF92FF920F9395
S11306F01F93CF93DF937C01C0E0D0E087010C0F00
S11307001D1F91DFF801808386E69EE00197F1F7D3
S11307100000219680818A3089F72297CE0DDF1D53
S11307201882C70187DFDF91CF911F910F91FF904E
S1130730EF900895FC0188279927E89421912032AD
S1130740E9F3293010F02E30C8F32B3239F02D3272
S113075031F4689403C03CD0820F911D2191205341
S11307602A30C8F31EF4909581959F4F08954EE466
S113077051E007C0FB01DC0101900D920020E1F77C
S11307800895FA01A191B081009719F41097E1F04E
S1130790CD01DC01CD010D90002011F4C00113C086
S11307A0FB012191222319F02015D9F7F3CFFB0186
S11307B02191201519F41E92119606C02223C1F727
S11307C00D900020A1F7D001FA01A193B083089500
S11307D07AE0979F902D879F802D910D1124089585
S11307E00F931F93CF93DF93CDB7DEB72E970FB63A
S11307F0F894DEBF0FBECDBF0D891E8986E08C83C1
S11308001A8309838FEF9FE79E838D83AE01475E32
S11308105F4F6F89788DCE01019610D0EF81F885F6
S1130820E00FF11F10822E960FB6F894DEBF0FBEB4
S1130830CDBFDF91CF911F910F9108952F923F92D9
S11308404F925F926F927F928F929F92AF92BF92DC
S1130850CF92DF92EF92FF920F931F93CF93DF9388
S1130860CDB7DEB72B970FB6F894DEBF0FBECDBF62
S11308706C017B018A01FC0117821682838181FF4E
S1130880BFC1CE0101963C01F6019381F70193FDAE
S1130890859193FF81917F01882309F4ADC185324D
S11308A039F493FD859193FF81917F01853221F481
S11308B0B60190E0D6D1E8CF912C212C312CFFE168
S11308C0F315D8F08B3279F038F4803279F0833232
S11308D0A1F4232D20611DC08D3261F0803369F4B1
S11308E0232D216016C0832D8260382EE32DE46011
S11308F03E2E2AC0F32DF8601DC037FC2DC020ED1C
S1130900280F2A3040F08E32B9F436FC75C1232DFD
S11309102064322E19C036FE06C08AE0989E200D4F
S11309201124922E11C0EAE02E9E200D1124222EB5
S1130930F32DF0623F2E08C08C3621F4832D80689D
S1130940382E02C0883641F4F70193FD859193FF58
S113095081917F018111B3CF982F9F7D955493305E
S113096028F40C5F1F4F9FE399830DC0833631F049
S1130970833771F0833509F055C020C0F8018081B8
S113098089830E5F1F4F88248394912C530112C0D6
S11309902801F2E04F0E511CF801A080B18036FE10
S11309A003C0692D70E002C06FEF7FEFC5014ED127
S11309B04C018201F32DFF773F2E15C0280122E060
S11309C0420E511CF801A080B18036FE03C0692D8F
S11309D070E002C06FEF7FEFC5012DD14C01F32D04
S11309E0F0683F2E820133FC19C0822D90E08816F6
S11309F09906A0F4B60180E290E033D12A94F5CFB1
S1130A00F50137FC859137FE81915F01B60190E0D5
S1130A1028D121102A9421E0821A9108811491048A
S1130A2079F7E1C0843611F0893639F5F80137FEDB
S1130A3007C060817181828193810C5F1F4F08C060
S1130A4060817181072E000C880B990B0E5F1F4F7C
S1130A50F32DFF763F2E97FF09C0909580957095F2
S1130A6061957F4F8F4F9F4FF0683F2E2AE030E013
S1130A70A30133D1882E861844C0853731F4232D41
S1130A802F7EB22E2AE030E025C0932D997FB92E17
S1130A908F36C1F018F4883579F0AEC0803719F07C
S1130AA0883721F0A9C0E92FE061BE2EB4FE0DC045
S1130AB0FB2DF460BF2E09C034FE0AC0292F266026
S1130AC0B22E06C028E030E005C020E130E002C0CC
S1130AD020E132E0F801B7FE07C0608171818281B4
S1130AE093810C5F1F4F06C06081718180E090E0AC
S1130AF00E5F1F4FA301F1D0882E8618FB2DFF77C0
S1130B003F2E36FE0DC0232D2E7FA22E891458F4BD
S1130B1034FE0BC032FC09C0832D8E7EA82E05C086
S1130B20B82CA32C03C0B82C01C0B92CA4FE0FC050
S1130B30FE01E80DF11D8081803321F49A2D997E08
S1130B40A92E09C0A2FE06C0B394B39404C08A2D92
S1130B50867809F0B394A3FC10C0A0FE06C0B214BA
S1130B6080F4280C922C9B180DC0B21458F4B601D2
S1130B7080E290E076D0B394F8CFB21418F42B1836
S1130B8002C0982C212CA4FE0FC0B60180E390E093
S1130B9068D0A2FE16C0A1FC03C088E790E002C0A2
S1130BA088E590E0B6010CC08A2D867851F0A1FE4C
S1130BB002C08BE201C080E2A7FC8DE2B60190E0A6
S1130BC050D0891430F4B60180E390E04AD09A946E
S1130BD0F8CF8A94F301E80DF11D8081B60190E00D
S1130BE040D08110F6CF222009F44ECEB60180E227
S1130BF090E037D02A94F7CFF6018681978102C01E
S1130C008FEF9FEF2B960FB6F894DEBF0FBECDBFCC
S1130C10DF91CF911F910F91FF90EF90DF90CF90D4
S1130C20BF90AF909F908F907F906F905F904F9008
S1130C303F902F900895FC01059061507040011081
S1130C40D8F7809590958E0F9F1F0895FC016150F1
S1130C50704001900110D8F7809590958E0F9F1FDA
S1130C6008950F931F93CF93DF93FB01238121FDFD
S1130C7003C08FEF9FEF2CC022FF16C0468157811F
S1130C80248135814217530744F4A081B1819D0129
S1130C902F5F3F4F318320838C93268137812F5FD1
S1130CA03F4F3783268314C08B01EC01FB01008482
S1130CB0F185E02D0995892BE1F6D80116968D91E1
S1130CC09C911797019617969C938E931697CE0135
S1130CD0DF91CF911F910F910895FA01AA2728302F
S1130CE051F1203181F1E8946F936E7F6E5F7F4FF5
S1130CF08F4F9F4FAF4FB1E03ED0B4E03CD0670F71
S1130D00781F891F9A1FA11D680F791F8A1F911DC3
S1130D10A11D6A0F711D811D911DA11D20D009F413
S1130D2068943F912AE0269F11243019305D319355
S1130D30DEF6CF010895462F4770405D4193B3E03E
S1130D400FD0C9F7F6CF462F4F70405D4A3318F0E5
S1130D50495D31FD4052419302D0A9F7EACFB4E096
S1130D60A6959795879577956795BA95C9F700974E
S1130D706105710508959B01AC010A2E06945795EF
S1130D80479537952795BA95C9F7620F731F841F46
S10D0D90951FA01D0895F894FFCFED
S1130D9A1400523A256400523A20256400523A203B
S1130DAA20256400523A2020202564004C3A256408
S1130DBA004C3A202564004C3A20202564004C3A21
S1130DCA202020256400543A256400543A202564DE
S1110DDA00483A256400483A202564004C0085
S9030000FC
