:1000000045C0000060C000005EC000005CC0000091
:100010005AC0000058C0000056C0000054C0000084
:1000200052C0000005C100004EC000004CC00000DE
:100030004AC0000048C0000046C0000044C00000A4
:1000400042C0000040C000003EC000003CC00000B4
:100050003AC0000038C0000036C0000034C00000C4
:1000600032C0000030C000002EC000002CC00000D4
:100070002AC0000028C0000026C0000024C00000E4
:1000800022C0000020C000001EC0000011241FBEBE
:10009000CFEFD0E1DEBFCDBF11E0A0E0B1E0EAEDEF
:1000A000F4E000E00BBF02C007900D92A231B1074F
:1000B000D9F721E0A2E1B1E001C01D92A631B2075B
:1000C000E1F75FD008C29CCF85B3846085BB89EF20
:1000D00090E00197F1F700C0000085B38B7F85BBEE
:1000E00089EF90E00197F1F700C00000089595B303
:1000F000916095BB8BBBE8DF83EF91E00197F1F74F
:1001000000C00000089595B39E7F95BB8BBBDCDFDC
:1001100083EF91E00197F1F700C00000089581E0BE
:10012000F2DF83EF91E00197F1F700C0000008953E
:1001300083ED90E30197F1F700C000008FEF8ABBD9
:100140001BBA84B3876084BB85B38D7F85BB88E38E
:10015000DADF8CE0D8DFE3DF86E0D5CF08950F93B8
:100160001F93CF938C01C0E002C0C1DFCF5FF801C5
:10017000EC0FF11D80818111F8CFCF911F910F916C
:100180000895CF93DF93CDB7DEB76E970FB6F8948F
:10019000DEBF0FBECDBFFE0131968EE1DF011D92A5
:1001A0008A95E9F783E089BF8FE080936A007894AD
:1001B000BFDF13D054D080E091E0D1DFBFEF2FEF4D
:1001C0008CE2B15020408040E1F700C00000A7DF82
:1001D000CE010196FCD00BD0EECF80E987BB80E842
:1001E00088BB9DE695BD87BF8FEF83BD0895809145
:1001F000140190911501813C21E092072CF010929E
:1002000015011092140108959C0129513140273A9B
:10021000310518F481E283BD0895895A91098F361A
:10022000910518F484E183BD089589E083BD0895A4
:100230001F920F920FB60F9211248F939F9380916C
:10024000140190911501019690931501809314016A
:100250009F918F910F900FBE0F901F90189598E16E
:100260009AB98FE589B990939A008093990008957F
:100270005F9BFECF8CB1089590919B0095FFFCCFC2
:1002800080939C000895CF93DF93EC0108C0F4DFC6
:10029000219683ED90E30197F1F700C0000088817B
:1002A0008111F5CFDF91CF9108950F931F93CF93D5
:1002B000DF93CDB7DEB7A8970FB6F894DEBF0FBEB9
:1002C000CDBF6DE071E0C7D0BC0120E030E01CC0C4
:1002D00089010F5F1F4FC901880F991F220F331F1C
:1002E000220F331F220F331F820F931F21E030E0B4
:1002F0002C0F3D1F820F931FB8D06DE071E080E09E
:1003000090E0A9D0BC0198016115710509F700E0E2
:1003100010E024C09801220F331FC801880F991FD5
:10032000880F991F880F991F820F931F21E030E0DB
:100330002C0F3D1F820F931FA6DF87EA91E60197DE
:10034000F1F700C000008FE091E09DDF87EA91E6C1
:100350000197F1F700C000000F5F1F4F0430110537
:10036000CCF2CE0101965AD0CE010B9657D0CE01D9
:10037000459654D0CE014F9651D000E010E019C000
:100380009801220F331FC801880F991F880F991FEA
:10039000880F991F820F931F4AE050E060E370E0DE
:1003A00021E030E02C0F3D1F820F931F57D00F5FCD
:1003B0001F4F0430110524F3A8960FB6F894DEBF42
:1003C0000FBECDBFDF91CF911F910F910895EF9296
:1003D000FF920F931F93CF93DF938C01C0E0D0E087
:1003E0007801EC0EFD1E44DFF7018083219644DF87
:1003F00089EF90E00197F1F700C00000FE0131970E
:10040000E00FF11F80818E3659F7C8014EDFDF9172
:10041000CF911F910F91FF90EF900895FC018827D5
:100420009927E89421912032E9F3293010F02E30F9
:10043000C8F32B3239F02D3231F4689403C043D025
:10044000820F911D219120532A30C8F31EF49095FC
:1004500081959F4F089542E151E00EC0DC0101C03B
:100460006D9341505040E0F70895FB01DC0101908D
:100470000D920020E1F70895FA01A191B081009753
:1004800019F41097E1F0CD01DC01CD010D900020B1
:1004900011F4C00113C0FB012191222319F0201592
:1004A000D9F7F3CFFB012191201519F41E92119673
:1004B00006C02223C1F70D900020A1F7D001FA0158
:1004C000A193B08308957AE0979F902D879F802D08
:0A04D000910D11240895F894FFCF58
:1004DA0048656C6C6F20576F726C6421004C000D7C
:0204EA000A0006
:00000001FF
